:100000000C9462000C947F000C947F000C947F0091
:100010000C947F000C947F000C947F000C941F01C3
:100020000C947F000C947F000C947F000C947F0054
:100030000C947F000C947F000C947F000C947F0044
:100040000C947B010C947F000C947F000C947F0037
:100050000C947F000C947F000C947F000C947F0024
:100060000C947F000C947F00000000002300260009
:10007000290000000008000201000003040700003E
:1000800000000000000000000000240027002A00FB
:10009000010204081020408001020408102001021F
:1000A0000408102000000000250028002B00040494
:1000B0000404040404040202020202020303030310
:1000C0000303020011241FBECFEFD8E0DEBFCDBF77
:1000D00011E0A0E0B1E0EAEFFCE002C005900D9273
:1000E000A232B107D9F721E0A2E2B1E001C01D922E
:1000F000AC33B207E1F70E94C5010C947B060C9467
:100100000000833081F028F4813099F08230A9F02A
:1001100008958730A9F08830C9F08430B1F4809117
:1001200080008F7D03C0809180008F778093800056
:10013000089584B58F7784BD089584B58F7DFBCFF6
:100140008091B0008F778093B00008958091B000C7
:100150008F7DF9CFCF93DF939091000189130BC06E
:10016000E2ECF0E0E4919FEF90930001E13059F16F
:1001700038F1E23071F1282F30E0F901EE58FF4FED
:100180008491F901E057FF4FD491F901E255FF4FF7
:10019000C491CC2391F081110E948100EC2FF0E0FA
:1001A000EE0FFF1FEC55FF4FA591B4918FB7F89458
:1001B000EC91D095DE23DC938FBFDF91CF91089532
:1001C00010926E00D8CF90916F009D7F90936F003A
:1001D000D2CF909170009D7F9093700091E09093AA
:1001E000B0009091B100987F94609093B10010920C
:1001F000B300C1CF3FB7F8948091270190912801B7
:10020000A0912901B0912A0126B5A89B05C02F3FD6
:1002100019F00196A11DB11D3FBFBA2FA92F982F2C
:100220008827BC01CD01620F711D811D911D42E027
:10023000660F771F881F991F4A95D1F708951F925F
:100240000F920FB60F9211242F933F934F935F930A
:100250006F937F938F939F93AF93BF93EF93FF938E
:100260008091300190913101A0913201B091330120
:10027000892B8A2B8B2BD1F190912B01E0912C01B2
:10028000F0912D01808189278083809130019091A8
:100290003101A0913201B0913301181619061A06E6
:1002A0001B069CF48091300190913101A0913201A4
:1002B000B09133010197A109B10980933001909366
:1002C0003101A0933201B0933301FF91EF91BF91BF
:1002D000AF919F918F917F916F915F914F913F91DE
:1002E0002F910F900FBE0F901F90189580910001D5
:1002F0000E94AA00EACF1F920F920FB60F9211240C
:100300002F933F938F939F93AF93BF93809123013C
:1003100090912401A0912501B091260130912201F4
:1003200023E0230F2D3758F50196A11DB11D209311
:1003300022018093230190932401A0932501B0937F
:1003400026018091270190912801A0912901B09167
:100350002A010196A11DB11D8093270190932801C8
:10036000A0932901B0932A01BF91AF919F918F91E2
:100370003F912F910F900FBE0F901F90189526E878
:10038000230F0296A11DB11DD2CFCF93DF93CDB71E
:10039000DEB729970FB6F894DEBF0FBECDBF7894B5
:1003A00084B5826084BD84B5816084BD85B582607A
:1003B00085BD85B5816085BD80916E00816080932B
:1003C0006E00109281008091810082608093810094
:1003D00080918100816080938100809180008160A4
:1003E000809380008091B10084608093B1008091FF
:1003F000B00081608093B00080917A008460809327
:100400007A0080917A00826080937A0080917A00ED
:10041000816080937A0080917A00806880937A006E
:100420001092C100ECE9F0E02491EAEBF0E0849155
:100430008823E1F090E0880F991FFC01EA57FF4FF5
:10044000A591B491FC01EC55FF4F859194919A834D
:1004500089833FB7F8949C91822F809598239C9331
:10046000E981FA819081892380833FBFEEE7F0E044
:100470008491ECE9F0E0F491FB83EAEBF0E0F49195
:10048000F983FF2309F47FC281110E948100298131
:10049000E22FF0E0EE0FFF1FE859FF4FA591B49156
:1004A0008C913B81382309F46EC281E191E09A83FB
:1004B0008983E1E0F1E0F887EF83E981FA816191D6
:1004C0007191FA83E98388EE93E00E94FC058B0129
:1004D000EF81F88521903190F887EF8380910001BA
:1004E0002B01770F660877088830C1F5E2ECF0E061
:1004F000F491F987F985F7FF7FC0C301B2010E942B
:10050000030526E636E646EA5FE30E9467050E9499
:10051000CB046B01770FEE08FF080E94FA004B0135
:100520005C01C114D104E104F10409F421C20E9468
:10053000FA00681979098A099B09683E73408105A8
:10054000910578F321E0C21AD108E108F10838EEEC
:10055000830E33E0931EA11CB11CE3CF8F3F69F6DD
:1005600028E020930001E2ECF0E0F491F987FF3FEE
:1005700021F2F13009F40FC130F1F23009F0BACFB5
:100580001092B0001092B1008091B0008260809310
:10059000B0008091B10081608093B100E6EBF0E0A3
:1005A0008491E82FF0E0EE0FFF1FEC55FF4F85918F
:1005B000949190932D0180932C01E8E9F0E08491CF
:1005C00080932B0119C014BC15BC84B5826084BD16
:1005D00085B5816085BDE6EBF0E08491E82FF0E021
:1005E000EE0FFF1FEC55FF4F85919491E8E9F0E085
:1005F000849180932F011986E8E9F0E04491E6EBBD
:10060000F0E08491882399F090E0880F991FFC0115
:10061000EA57FF4FA591B491FC01EC55FF4F25918E
:1006200034918FB7F8949C91492B4C938FBF410123
:10063000B12CA12C60E072E18AE790E0A501910164
:100640000E9432062B833C834D835E8369017A01CD
:10065000F1E0CF1AD108E108F10889858D7F09F012
:1006600030C12FEFC216D104E104F10409F00CF4FB
:10067000FDC060E472E48FE090E0A50191010E946A
:10068000320669017A0181E0C81AD108E108F1084F
:100690009985923009F09EC082E0EFEFCE16D1042A
:1006A000E104F10409F00CF46FC060E970ED83E03F
:1006B00090E0A50191010E94320669017A01F1E002
:1006C000CF1AD108E108F10883E02FEFC216D10458
:1006D000E104F10409F00CF457C068E478EE81E01D
:1006E00090E0A50191010E94320669017A01F1E0D2
:1006F000CF1AD108E108F10884E02FEFC216D10427
:10070000E104F10409F00CF43FC064E274EF80E00E
:1007100090E0A50194010E94320669017A01E1E0AE
:10072000CE1AD108E108F10885E0EFEFCE16D1042A
:10073000E104F10449F140F162E17AE780E090E000
:10074000A50194010E94320669017A0181E0C81A6C
:10075000D108E108F10886E09FEFC916D104E10451
:10076000F10491F088F0CB80DC80ED80FE809AE08F
:10077000F594E794D794C7949A95D1F791E0C91A64
:10078000D108E108F10887E09091B100987F892BAA
:100790008093B10073C0109280001092810080910C
:1007A00081008860809381008091810081608093C6
:1007B0008100E6EBF0E08491E82FF0E0EE0FFF1F00
:1007C000EC55FF4F85919491E8E9F0E08491809396
:1007D0002E0112CF3FEFC316D104E104F10409F05A
:1007E0000CF46DC068E478EE81E090E0A501910121
:1007F0000E94320669017A0181E0C81AD108E10835
:10080000F108998584E0911190CF83E03FEFC31602
:10081000D104E104F10471F16CF162E17AE780E066
:1008200090E0A50194010E94320669017A01F1E08D
:10083000CF1AD108E108F10884E02FEFC216D104E5
:10084000E104F104B9F0B0F0CB80DC80ED80FE80F3
:100850008AE0F594E794D794C7948A95D1F7E1E0BC
:10086000CE1AD108E108F10885E004C081E039859D
:1008700031118ACF95B5987F892B85BD2FEF3FEF3A
:10088000A901411451046104710409F042C0F985C1
:10089000F13009F44BC0F23009F45AC0F1112DCEF9
:1008A000C7BC209338013093390140933A015093EB
:1008B0003B0180916E00826080936E001ECE82E0CC
:1008C000D6CF91E0C114D10481E0E806F10484F0B0
:1008D00068E478EE81E090E0A50191010E94320683
:1008E00069017A0191E0C91AD108E108F10893E0A1
:1008F000E985E13019F680918100887F892B80930A
:1009000081002FEF3FEFA9014114510461047104EC
:1009100069F09101220F331FD8010E94510628EE81
:1009200033E040E050E00E941006B1CFD092890041
:10093000C0928800209334013093350140933601F2
:100940005093370180916F00826080936F00D5CD06
:10095000C092B300209330013093310140933201B3
:100960005093330180917000826080937000C5CDF8
:1009700088E00E94AA0021E231E089819A8128174B
:10098000390709F09ACD80E090E0892B09F46ECD0B
:100990000E9400006BCD0E94D2046894B1110C94A7
:1009A000610508950E94460588F09F5798F0B92F79
:1009B0009927B751B0F0E1F0660F771F881F991F94
:1009C0001AF0BA95C9F714C0B13091F00E946005D1
:1009D000B1E008950C946005672F782F8827B85FE1
:1009E00039F0B93FCCF3869577956795B395D9F7EC
:1009F0003EF490958095709561957F4F8F4F9F4FF6
:100A00000895E89409C097FB3EF490958095709501
:100A100061957F4F8F4F9F4F9923A9F0F92F96E94A
:100A2000BB279395F695879577956795B795F111BF
:100A3000F8CFFAF4BB0F11F460FF1BC06F5F7F4F5C
:100A40008F4F9F4F16C0882311F096E911C077236E
:100A500021F09EE8872F762F05C0662371F096E877
:100A6000862F70E060E02AF09A95660F771F881F46
:100A7000DAF7880F9695879597F9089557FD90585E
:100A8000440F551F59F05F3F71F04795880F97FB52
:100A9000991F61F09F3F79F087950895121613060C
:100AA0001406551FF2CF4695F1DF08C0161617063B
:100AB0001806991FF1CF8695710561050894089570
:100AC000E894BB2766277727CB0197F908950E9402
:100AD0007A050C94EB050E94DD0538F00E94E405D0
:100AE00020F0952311F00C94D4050C94DA05112410
:100AF0000C9461050E943E0570F3959FC1F3950F1C
:100B000050E0551F629FF001729FBB27F00DB11D91
:100B1000639FAA27F00DB11DAA1F649F6627B00D21
:100B2000A11D661F829F2227B00DA11D621F739F0A
:100B3000B00DA11D621F839FA00D611D221F749F18
:100B40003327A00D611D231F849F600D211D822F5F
:100B5000762F6A2F11249F5750409AF0F1F0882386
:100B60004AF0EE0FFF1FBB1F661F771F881F9150B3
:100B70005040A9F79E3F510580F00C94D4050C9489
:100B800061055F3FE4F3983ED4F3869577956795CA
:100B9000B795F795E7959F5FC1F7FE2B880F911DDD
:100BA0009695879597F9089597F99F6780E870E083
:100BB00060E008959FEF80EC089500240A941616D3
:100BC000170618060906089500240A94121613063B
:100BD000140605060895092E0394000C11F48823C9
:100BE00052F0BB0F40F4BF2B11F460FF04C06F5FE5
:100BF0007F4F8F4F9F4F089597FB072E16F4009459
:100C000007D077FD09D00E94580607FC05D03EF4B6
:100C1000909581959F4F0895709561957F4F0895A8
:100C2000A1E21A2EAA1BBB1BFD010DC0AA1FBB1FF0
:100C3000EE1FFF1FA217B307E407F50720F0A21B62
:100C4000B30BE40BF50B661F771F881F991F1A94CF
:100C500069F760957095809590959B01AC01BD01F9
:100C6000CF010895052E97FB1EF400940E944906BB
:100C700057FD07D00E94100607FC03D04EF40C94D9
:100C8000490650954095309521953F4F4F4F5F4F06
:100C9000089590958095709561957F4F8F4F9F4FE8
:100CA00008950E946C06B7FF0895821B930B089568
:100CB000AA1BBB1B51E107C0AA1FBB1FA617B70782
:100CC00010F0A61BB70B881F991F5A95A9F780959E
:100CD0009095BC01CD010895A29FB001B39FC001C2
:100CE000A39F700D811D1124911DB29F700D811D58
:0A0CF0001124911D0895F894FFCF20
:100CFA00FF0601C400C400DC00C4000000F70006BF
:100D0A0001040008000800040004000400040004B0
:020D1A000000D7
:00000001FF
